{
  "contractName": "DID",
  "abi": [
    {
      "inputs": [
        {
          "internalType": "string",
          "name": "_hashedId",
          "type": "string"
        },
        {
          "components": [
            {
              "internalType": "string",
              "name": "gender",
              "type": "string"
            },
            {
              "internalType": "string",
              "name": "name",
              "type": "string"
            },
            {
              "internalType": "uint8",
              "name": "age",
              "type": "uint8"
            },
            {
              "internalType": "string",
              "name": "addr",
              "type": "string"
            },
            {
              "internalType": "string",
              "name": "mobile",
              "type": "string"
            },
            {
              "internalType": "string",
              "name": "email",
              "type": "string"
            }
          ],
          "internalType": "struct IDID.User",
          "name": "_data",
          "type": "tuple"
        }
      ],
      "name": "registerUser",
      "outputs": [],
      "stateMutability": "nonpayable",
      "type": "function"
    },
    {
      "inputs": [
        {
          "internalType": "string",
          "name": "_hashedId",
          "type": "string"
        },
        {
          "internalType": "string",
          "name": "_hashedId_new",
          "type": "string"
        }
      ],
      "name": "updatePassword",
      "outputs": [],
      "stateMutability": "nonpayable",
      "type": "function"
    },
    {
      "inputs": [
        {
          "internalType": "string",
          "name": "_hashedId",
          "type": "string"
        },
        {
          "components": [
            {
              "internalType": "string",
              "name": "gender",
              "type": "string"
            },
            {
              "internalType": "string",
              "name": "name",
              "type": "string"
            },
            {
              "internalType": "uint8",
              "name": "age",
              "type": "uint8"
            },
            {
              "internalType": "string",
              "name": "addr",
              "type": "string"
            },
            {
              "internalType": "string",
              "name": "mobile",
              "type": "string"
            },
            {
              "internalType": "string",
              "name": "email",
              "type": "string"
            }
          ],
          "internalType": "struct IDID.User",
          "name": "_data",
          "type": "tuple"
        }
      ],
      "name": "updateUser",
      "outputs": [],
      "stateMutability": "nonpayable",
      "type": "function"
    },
    {
      "inputs": [
        {
          "internalType": "string",
          "name": "_hashedId",
          "type": "string"
        }
      ],
      "name": "deleteUser",
      "outputs": [],
      "stateMutability": "nonpayable",
      "type": "function"
    },
    {
      "inputs": [
        {
          "internalType": "string",
          "name": "_hashedId",
          "type": "string"
        }
      ],
      "name": "getUser",
      "outputs": [
        {
          "components": [
            {
              "internalType": "string",
              "name": "gender",
              "type": "string"
            },
            {
              "internalType": "string",
              "name": "name",
              "type": "string"
            },
            {
              "internalType": "uint8",
              "name": "age",
              "type": "uint8"
            },
            {
              "internalType": "string",
              "name": "addr",
              "type": "string"
            },
            {
              "internalType": "string",
              "name": "mobile",
              "type": "string"
            },
            {
              "internalType": "string",
              "name": "email",
              "type": "string"
            }
          ],
          "internalType": "struct IDID.User",
          "name": "",
          "type": "tuple"
        }
      ],
      "stateMutability": "view",
      "type": "function",
      "constant": true
    },
    {
      "inputs": [
        {
          "internalType": "string",
          "name": "_hashedId",
          "type": "string"
        }
      ],
      "name": "isRegistered",
      "outputs": [
        {
          "internalType": "bool",
          "name": "",
          "type": "bool"
        }
      ],
      "stateMutability": "view",
      "type": "function",
      "constant": true
    }
  ],
  "bytecode": "0x608060405234801561001057600080fd5b506113ea806100206000396000f3fe608060405234801561001057600080fd5b50600436106100625760003560e01c806331feb671146100675780638142b2e414610097578063c822d7f0146100b3578063cdfbb351146100e3578063d3695161146100ff578063f2c532501461011b575b600080fd5b610081600480360381019061007c9190610b3f565b610137565b60405161008e9190610cd1565b60405180910390f35b6100b160048036038101906100ac9190610e55565b610466565b005b6100cd60048036038101906100c89190610b3f565b6105e7565b6040516100da9190610ee8565b60405180910390f35b6100fd60048036038101906100f89190610f03565b61061c565b005b61011960048036038101906101149190610b3f565b610711565b005b61013560048036038101906101309190610e55565b610805565b005b61013f61094f565b60008260405161014f9190610fb7565b90815260200160405180910390206040518060c001604052908160008201805461017890610ffd565b80601f01602080910402602001604051908101604052809291908181526020018280546101a490610ffd565b80156101f15780601f106101c6576101008083540402835291602001916101f1565b820191906000526020600020905b8154815290600101906020018083116101d457829003601f168201915b5050505050815260200160018201805461020a90610ffd565b80601f016020809104026020016040519081016040528092919081815260200182805461023690610ffd565b80156102835780601f1061025857610100808354040283529160200191610283565b820191906000526020600020905b81548152906001019060200180831161026657829003601f168201915b505050505081526020016002820160009054906101000a900460ff1660ff1660ff1681526020016003820180546102b990610ffd565b80601f01602080910402602001604051908101604052809291908181526020018280546102e590610ffd565b80156103325780601f1061030757610100808354040283529160200191610332565b820191906000526020600020905b81548152906001019060200180831161031557829003601f168201915b5050505050815260200160048201805461034b90610ffd565b80601f016020809104026020016040519081016040528092919081815260200182805461037790610ffd565b80156103c45780601f10610399576101008083540402835291602001916103c4565b820191906000526020600020905b8154815290600101906020018083116103a757829003601f168201915b505050505081526020016005820180546103dd90610ffd565b80601f016020809104026020016040519081016040528092919081815260200182805461040990610ffd565b80156104565780601f1061042b57610100808354040283529160200191610456565b820191906000526020600020905b81548152906001019060200180831161043957829003601f168201915b5050505050815250509050919050565b6001826040516104769190610fb7565b908152602001604051809103902060009054906101000a900460ff161561049c57600080fd5b6104a461094f565b81600001518160000181905250816020015181602001819052508160400151816040019060ff16908160ff168152505081606001518160600181905250816080015181608001819052508160a001518160a001819052506001808460405161050c9190610fb7565b908152602001604051809103902060006101000a81548160ff021916908315150217905550816000846040516105429190610fb7565b9081526020016040518091039020600082015181600001908161056591906111e4565b50602082015181600101908161057b91906111e4565b5060408201518160020160006101000a81548160ff021916908360ff16021790555060608201518160030190816105b291906111e4565b5060808201518160040190816105c891906111e4565b5060a08201518160050190816105de91906111e4565b50905050505050565b60006001826040516105f99190610fb7565b908152602001604051809103902060009054906101000a900460ff169050919050565b610625826105e7565b61062e57600080fd5b60008260405161063e9190610fb7565b908152602001604051809103902060008260405161065c9190610fb7565b90815260200160405180910390206000820181600001908161067e91906112cc565b506001820181600101908161069391906112cc565b506002820160009054906101000a900460ff168160020160006101000a81548160ff021916908360ff160217905550600382018160030190816106d691906112cc565b50600482018160040190816106eb91906112cc565b506005820181600501908161070091906112cc565b5090505061070d82610711565b5050565b6001816040516107219190610fb7565b908152602001604051809103902060009054906101000a900460ff1661074657600080fd5b6000816040516107569190610fb7565b9081526020016040518091039020600080820160006107759190610988565b6001820160006107859190610988565b6002820160006101000a81549060ff02191690556003820160006107a99190610988565b6004820160006107b99190610988565b6005820160006107c99190610988565b505060006001826040516107dd9190610fb7565b908152602001604051809103902060006101000a81548160ff02191690831515021790555050565b6001826040516108159190610fb7565b908152602001604051809103902060009054906101000a900460ff1661083a57600080fd5b61084261094f565b81600001518160000181905250816020015181602001819052508160400151816040019060ff16908160ff168152505081606001518160600181905250816080015181608001819052508160a001518160a00181905250806000846040516108aa9190610fb7565b908152602001604051809103902060008201518160000190816108cd91906111e4565b5060208201518160010190816108e391906111e4565b5060408201518160020160006101000a81548160ff021916908360ff160217905550606082015181600301908161091a91906111e4565b50608082015181600401908161093091906111e4565b5060a082015181600501908161094691906111e4565b50905050505050565b6040518060c001604052806060815260200160608152602001600060ff1681526020016060815260200160608152602001606081525090565b50805461099490610ffd565b6000825580601f106109a657506109c5565b601f0160209004906000526020600020908101906109c491906109c8565b5b50565b5b808211156109e15760008160009055506001016109c9565b5090565b6000604051905090565b600080fd5b600080fd5b600080fd5b600080fd5b6000601f19601f8301169050919050565b7f4e487b7100000000000000000000000000000000000000000000000000000000600052604160045260246000fd5b610a4c82610a03565b810181811067ffffffffffffffff82111715610a6b57610a6a610a14565b5b80604052505050565b6000610a7e6109e5565b9050610a8a8282610a43565b919050565b600067ffffffffffffffff821115610aaa57610aa9610a14565b5b610ab382610a03565b9050602081019050919050565b82818337600083830152505050565b6000610ae2610add84610a8f565b610a74565b905082815260208101848484011115610afe57610afd6109fe565b5b610b09848285610ac0565b509392505050565b600082601f830112610b2657610b256109f9565b5b8135610b36848260208601610acf565b91505092915050565b600060208284031215610b5557610b546109ef565b5b600082013567ffffffffffffffff811115610b7357610b726109f4565b5b610b7f84828501610b11565b91505092915050565b600081519050919050565b600082825260208201905092915050565b60005b83811015610bc2578082015181840152602081019050610ba7565b83811115610bd1576000848401525b50505050565b6000610be282610b88565b610bec8185610b93565b9350610bfc818560208601610ba4565b610c0581610a03565b840191505092915050565b600060ff82169050919050565b610c2681610c10565b82525050565b600060c0830160008301518482036000860152610c498282610bd7565b91505060208301518482036020860152610c638282610bd7565b9150506040830151610c786040860182610c1d565b5060608301518482036060860152610c908282610bd7565b91505060808301518482036080860152610caa8282610bd7565b91505060a083015184820360a0860152610cc48282610bd7565b9150508091505092915050565b60006020820190508181036000830152610ceb8184610c2c565b905092915050565b600080fd5b600080fd5b610d0681610c10565b8114610d1157600080fd5b50565b600081359050610d2381610cfd565b92915050565b600060c08284031215610d3f57610d3e610cf3565b5b610d4960c0610a74565b9050600082013567ffffffffffffffff811115610d6957610d68610cf8565b5b610d7584828501610b11565b600083015250602082013567ffffffffffffffff811115610d9957610d98610cf8565b5b610da584828501610b11565b6020830152506040610db984828501610d14565b604083015250606082013567ffffffffffffffff811115610ddd57610ddc610cf8565b5b610de984828501610b11565b606083015250608082013567ffffffffffffffff811115610e0d57610e0c610cf8565b5b610e1984828501610b11565b60808301525060a082013567ffffffffffffffff811115610e3d57610e3c610cf8565b5b610e4984828501610b11565b60a08301525092915050565b60008060408385031215610e6c57610e6b6109ef565b5b600083013567ffffffffffffffff811115610e8a57610e896109f4565b5b610e9685828601610b11565b925050602083013567ffffffffffffffff811115610eb757610eb66109f4565b5b610ec385828601610d29565b9150509250929050565b60008115159050919050565b610ee281610ecd565b82525050565b6000602082019050610efd6000830184610ed9565b92915050565b60008060408385031215610f1a57610f196109ef565b5b600083013567ffffffffffffffff811115610f3857610f376109f4565b5b610f4485828601610b11565b925050602083013567ffffffffffffffff811115610f6557610f646109f4565b5b610f7185828601610b11565b9150509250929050565b600081905092915050565b6000610f9182610b88565b610f9b8185610f7b565b9350610fab818560208601610ba4565b80840191505092915050565b6000610fc38284610f86565b915081905092915050565b7f4e487b7100000000000000000000000000000000000000000000000000000000600052602260045260246000fd5b6000600282049050600182168061101557607f821691505b60208210810361102857611027610fce565b5b50919050565b60008190508160005260206000209050919050565b60006020601f8301049050919050565b600082821b905092915050565b6000600883026110907fffffffffffffffffffffffffffffffffffffffffffffffffffffffffffffffff82611053565b61109a8683611053565b95508019841693508086168417925050509392505050565b6000819050919050565b6000819050919050565b60006110e16110dc6110d7846110b2565b6110bc565b6110b2565b9050919050565b6000819050919050565b6110fb836110c6565b61110f611107826110e8565b848454611060565b825550505050565b600090565b611124611117565b61112f8184846110f2565b505050565b5b818110156111535761114860008261111c565b600181019050611135565b5050565b601f821115611198576111698161102e565b61117284611043565b81016020851015611181578190505b61119561118d85611043565b830182611134565b50505b505050565b600082821c905092915050565b60006111bb6000198460080261119d565b1980831691505092915050565b60006111d483836111aa565b9150826002028217905092915050565b6111ed82610b88565b67ffffffffffffffff81111561120657611205610a14565b5b6112108254610ffd565b61121b828285611157565b600060209050601f83116001811461124e576000841561123c578287015190505b61124685826111c8565b8655506112ae565b601f19841661125c8661102e565b60005b828110156112845784890151825560018201915060208501945060208101905061125f565b868310156112a1578489015161129d601f8916826111aa565b8355505b6001600288020188555050505b505050505050565b6000815490506112c581610ffd565b9050919050565b8181036112da5750506113b2565b6112e3826112b6565b67ffffffffffffffff8111156112fc576112fb610a14565b5b6113068254610ffd565b611311828285611157565b6000601f831160018114611340576000841561132e578287015490505b61133885826111c8565b8655506113ab565b601f19841661134e8761102e565b96506113598661102e565b60005b828110156113815784890154825560018201915060018501945060208101905061135c565b8683101561139e578489015461139a601f8916826111aa565b8355505b6001600288020188555050505b5050505050505b56fea2646970667358221220ebd04911d38ebf658e1c8b95f3945faec27c2dd4c4895416cd5082212c28f34b64736f6c634300080f0033",
  "immutableReferences": {},
  "source": "// SPDX-License-Identifier: MIT\r\npragma solidity ^0.8.15;\r\n\r\nimport './IDID.sol';\r\n\r\ncontract DID is IDID {\r\n    mapping(string => User) private user;\r\n    mapping(string => bool) private registeredUser;\r\n    // constructor(string memory _hashedId){\r\n    //     user[_hashedId] = User('Female','ivy',10, unicode\" \",'010-1111-1111','yellow_w@naver.com','1234');\r\n    // }\r\n\r\n        string gender;\r\n        string name;\r\n        uint8 age;\r\n        string addr;\r\n        string mobile;\r\n        string email;\r\n\r\n    function registerUser (string memory _hashedId, User memory _data) external{\r\n        require(!registeredUser[_hashedId]);\r\n        \r\n        User memory userObj;\r\n     \r\n        userObj.gender = _data.gender;\r\n        userObj.name = _data.name;\r\n        userObj.age = _data.age;\r\n        userObj.addr = _data.addr;\r\n        userObj.mobile = _data.mobile;\r\n        userObj.email = _data.email;\r\n\r\n        registeredUser[_hashedId] = true;\r\n        user[_hashedId] = _data;\r\n    }\r\n\r\n    function updatePassword (string memory _hashedId,string memory _hashedId_new)external{\r\n        require(isRegistered(_hashedId));\r\n        user[_hashedId_new] = user[_hashedId];\r\n        deleteUser(_hashedId);\r\n    }\r\n\r\n    function updateUser (string memory _hashedId, User memory _data) external{\r\n        require(registeredUser[_hashedId]);\r\n        User memory userObj;\r\n     \r\n        userObj.gender = _data.gender;\r\n        userObj.name = _data.name;\r\n        userObj.age = _data.age;\r\n        userObj.addr = _data.addr;\r\n        userObj.mobile = _data.mobile;\r\n        userObj.email = _data.email;\r\n\r\n        user[_hashedId] = userObj;\r\n    }\r\n\r\n    function deleteUser (string memory _hashedId) public{\r\n        require(registeredUser[_hashedId]);\r\n\r\n        delete user[_hashedId];\r\n        registeredUser[_hashedId] = false;\r\n    }\r\n    \r\n    function getUser(string memory _hashedId) view external returns(User memory){\r\n        return user[_hashedId];        \r\n    }\r\n\r\n    function isRegistered(string memory _hashedId) view public returns(bool){\r\n        return registeredUser[_hashedId];\r\n    }\r\n}",
  "sourcePath": "/Users/chronica/Desktop/lsj/blockchain5/DID_prac/DID_prac/truffle/contracts/DID.sol",
  "compiler": {
    "name": "solc",
    "version": "0.8.15+commit.e14f2714.Emscripten.clang"
  },
  "schemaVersion": "3.4.5",
  "updatedAt": "2022-08-31T13:41:08.722Z",
  "networkType": "ethereum",
  "devdoc": {
    "kind": "dev",
    "methods": {},
    "version": 1
  },
  "userdoc": {
    "kind": "user",
    "methods": {},
    "version": 1
  }
}